{
    "contractName": "Ownable",
    "abi": [
        {
            "inputs": [],
            "stateMutability": "nonpayable",
            "type": "constructor"
        },
        {
            "anonymous": false,
            "inputs": [
                {
                    "indexed": true,
                    "internalType": "address",
                    "name": "previousOwner",
                    "type": "address"
                },
                {
                    "indexed": true,
                    "internalType": "address",
                    "name": "newOwner",
                    "type": "address"
                }
            ],
            "name": "OwnershipTransferred",
            "type": "event"
        },
        {
            "inputs": [],
            "name": "CANNOT_TRANSFER_TO_ZERO_ADDRESS",
            "outputs": [
                {
                    "internalType": "string",
                    "name": "",
                    "type": "string"
                }
            ],
            "stateMutability": "view",
            "type": "function"
        },
        {
            "inputs": [],
            "name": "NOT_CURRENT_OWNER",
            "outputs": [
                {
                    "internalType": "string",
                    "name": "",
                    "type": "string"
                }
            ],
            "stateMutability": "view",
            "type": "function"
        },
        {
            "inputs": [],
            "name": "owner",
            "outputs": [
                {
                    "internalType": "address",
                    "name": "",
                    "type": "address"
                }
            ],
            "stateMutability": "view",
            "type": "function"
        },
        {
            "inputs": [
                {
                    "internalType": "address",
                    "name": "_newOwner",
                    "type": "address"
                }
            ],
            "name": "transferOwnership",
            "outputs": [],
            "stateMutability": "nonpayable",
            "type": "function"
        }
    ],
    "bytecode": "608060405234801561001057600080fd5b50600080546001600160a01b0319163317905561029b806100326000396000f3fe608060405234801561001057600080fd5b506004361061004c5760003560e01c8063860d248a146100515780638da5cb5b1461008c578063f2fde38b146100b7578063f3fe3bc3146100cc575b600080fd5b6100766040518060400160405280600681526020016518189c18181960d11b81525081565b6040516100839190610212565b60405180910390f35b60005461009f906001600160a01b031681565b6040516001600160a01b039091168152602001610083565b6100ca6100c53660046101e4565b6100f1565b005b6100766040518060400160405280600681526020016530313830303160d01b81525081565b60005460408051808201909152600681526530313830303160d01b6020820152906001600160a01b031633146101435760405162461bcd60e51b815260040161013a9190610212565b60405180910390fd5b5060408051808201909152600681526518189c18181960d11b60208201526001600160a01b0382166101885760405162461bcd60e51b815260040161013a9190610212565b50600080546040516001600160a01b03808516939216917f8be0079c531659141344cd1fd0a4f28419497f9722a3daafe3b4186f6b6457e091a3600080546001600160a01b0319166001600160a01b0392909216919091179055565b6000602082840312156101f5578081fd5b81356001600160a01b038116811461020b578182fd5b9392505050565b6000602080835283518082850152825b8181101561023e57858101830151858201604001528201610222565b8181111561024f5783604083870101525b50601f01601f191692909201604001939250505056fea2646970667358221220fe75fa20e2522451b4165e138dd215b7c3dd0545818e82aa5cef29edbbf1eb9864736f6c63430008020033",
    "sourcePath": "c:/Users/CSR Rahman/Desktop/CODE/Ethereum/EthPlayground/test.sol",
    "compiler": {
        "name": "solc",
        "version": "0.8.2+commit.661d1103"
    },
    "functionHashes": {
        "CANNOT_TRANSFER_TO_ZERO_ADDRESS()": "860d248a",
        "NOT_CURRENT_OWNER()": "f3fe3bc3",
        "owner()": "8da5cb5b",
        "transferOwnership(address)": "f2fde38b"
    },
    "gasEstimates": {
        "creation": {
            "codeDepositCost": "133400",
            "executionCost": "21012",
            "totalCost": "154412"
        },
        "external": {
            "CANNOT_TRANSFER_TO_ZERO_ADDRESS()": "infinite",
            "NOT_CURRENT_OWNER()": "infinite",
            "owner()": "1037",
            "transferOwnership(address)": "infinite"
        }
    }
}